{
  "contractName": "TodoList",
  "abi": [
    {
      "inputs": [],
      "payable": false,
      "stateMutability": "nonpayable",
      "type": "constructor"
    },
    {
      "anonymous": false,
      "inputs": [
        {
          "indexed": false,
          "internalType": "uint256",
          "name": "id",
          "type": "uint256"
        },
        {
          "indexed": false,
          "internalType": "bool",
          "name": "completed",
          "type": "bool"
        }
      ],
      "name": "TaskCompleted",
      "type": "event"
    },
    {
      "anonymous": false,
      "inputs": [
        {
          "indexed": false,
          "internalType": "uint256",
          "name": "id",
          "type": "uint256"
        },
        {
          "indexed": false,
          "internalType": "string",
          "name": "content",
          "type": "string"
        },
        {
          "indexed": false,
          "internalType": "string",
          "name": "timestamp",
          "type": "string"
        },
        {
          "indexed": false,
          "internalType": "bool",
          "name": "completed",
          "type": "bool"
        }
      ],
      "name": "TaskCreated",
      "type": "event"
    },
    {
      "constant": true,
      "inputs": [],
      "name": "taskCount",
      "outputs": [
        {
          "internalType": "uint256",
          "name": "",
          "type": "uint256"
        }
      ],
      "payable": false,
      "stateMutability": "view",
      "type": "function"
    },
    {
      "constant": true,
      "inputs": [
        {
          "internalType": "uint256",
          "name": "",
          "type": "uint256"
        }
      ],
      "name": "tasks",
      "outputs": [
        {
          "internalType": "uint256",
          "name": "id",
          "type": "uint256"
        },
        {
          "internalType": "string",
          "name": "content",
          "type": "string"
        },
        {
          "internalType": "string",
          "name": "timestamp",
          "type": "string"
        },
        {
          "internalType": "bool",
          "name": "completed",
          "type": "bool"
        }
      ],
      "payable": false,
      "stateMutability": "view",
      "type": "function"
    },
    {
      "constant": false,
      "inputs": [
        {
          "internalType": "string",
          "name": "_content",
          "type": "string"
        },
        {
          "internalType": "string",
          "name": "_timestamp",
          "type": "string"
        }
      ],
      "name": "createTask",
      "outputs": [],
      "payable": false,
      "stateMutability": "nonpayable",
      "type": "function"
    },
    {
      "constant": false,
      "inputs": [
        {
          "internalType": "uint256",
          "name": "_id",
          "type": "uint256"
        }
      ],
      "name": "toggleCompleted",
      "outputs": [],
      "payable": false,
      "stateMutability": "nonpayable",
      "type": "function"
    }
  ],
  "bytecode": "0x60806040526000805534801561001457600080fd5b50610061604051806060016040528060278152602001610b826027913960408051808201909152600b81526a032362f4175672f323032360ac1b60208201526001600160e01b0361006616565b6102b0565b6000805460019081018083556040805160808101825282815260208082018881528284018890526060830187905293865284815291909420845181559151805192936100ba93908501929190910190610215565b50604082015180516100d6916002840191602090910190610215565b5060608201518160030160006101000a81548160ff0219169083151502179055509050507f1f1dc866a3d68607b66a89eaa8e2ebf7a04f8ed36bd9e3d5139ca4ce0d5541556000548383600060405180858152602001806020018060200184151515158152602001838103835286818151815260200191508051906020019080838360005b8381101561017357818101518382015260200161015b565b50505050905090810190601f1680156101a05780820380516001836020036101000a031916815260200191505b50838103825285518152855160209182019187019080838360005b838110156101d35781810151838201526020016101bb565b50505050905090810190601f1680156102005780820380516001836020036101000a031916815260200191505b50965050505050505060405180910390a15050565b828054600181600116156101000203166002900490600052602060002090601f016020900481019282601f1061025657805160ff1916838001178555610283565b82800160010185558215610283579182015b82811115610283578251825591602001919060010190610268565b5061028f929150610293565b5090565b6102ad91905b8082111561028f5760008155600101610299565b90565b6108c3806102bf6000396000f3fe608060405234801561001057600080fd5b506004361061004c5760003560e01c8063292a458514610051578063455f5024146101805780638d9776721461019d578063b6cb58a5146102aa575b600080fd5b61017e6004803603604081101561006757600080fd5b81019060208101813564010000000081111561008257600080fd5b82018360208201111561009457600080fd5b803590602001918460018302840111640100000000831117156100b657600080fd5b91908080601f016020809104026020016040519081016040528093929190818152602001838380828437600092019190915250929594936020810193503591505064010000000081111561010957600080fd5b82018360208201111561011b57600080fd5b8035906020019184600183028401116401000000008311171561013d57600080fd5b91908080601f0160208091040260200160405190810160405280939291908181526020018383808284376000920191909152509295506102c4945050505050565b005b61017e6004803603602081101561019657600080fd5b5035610473565b6101ba600480360360208110156101b357600080fd5b5035610682565b60405180858152602001806020018060200184151515158152602001838103835286818151815260200191508051906020019080838360005b8381101561020b5781810151838201526020016101f3565b50505050905090810190601f1680156102385780820380516001836020036101000a031916815260200191505b50838103825285518152855160209182019187019080838360005b8381101561026b578181015183820152602001610253565b50505050905090810190601f1680156102985780820380516001836020036101000a031916815260200191505b50965050505050505060405180910390f35b6102b26107c3565b60408051918252519081900360200190f35b600080546001908101808355604080516080810182528281526020808201888152828401889052606083018790529386528481529190942084518155915180519293610318939085019291909101906107c9565b50604082015180516103349160028401916020909101906107c9565b5060608201518160030160006101000a81548160ff0219169083151502179055509050507f1f1dc866a3d68607b66a89eaa8e2ebf7a04f8ed36bd9e3d5139ca4ce0d5541556000548383600060405180858152602001806020018060200184151515158152602001838103835286818151815260200191508051906020019080838360005b838110156103d15781810151838201526020016103b9565b50505050905090810190601f1680156103fe5780820380516001836020036101000a031916815260200191505b50838103825285518152855160209182019187019080838360005b83811015610431578181015183820152602001610419565b50505050905090810190601f16801561045e5780820380516001836020036101000a031916815260200191505b50965050505050505060405180910390a15050565b61047b610847565b60008281526001602081815260409283902083516080810185528154815281840180548651600296821615610100026000190190911695909504601f810185900485028601850190965285855290949193858401939092908301828280156105245780601f106104f957610100808354040283529160200191610524565b820191906000526020600020905b81548152906001019060200180831161050757829003601f168201915b5050509183525050600282810180546040805160206001841615610100026000190190931694909404601f810183900483028501830190915280845293810193908301828280156105b65780601f1061058b576101008083540402835291602001916105b6565b820191906000526020600020905b81548152906001019060200180831161059957829003601f168201915b50505091835250506003919091015460ff1615156020918201526060820180511590526000848152600180835260409091208351815583830151805194955085949193610608938501929101906107c9565b50604082015180516106249160028401916020909101906107c9565b50606091820151600391909101805460ff191691151591909117905581015160408051848152911515602083015280517fe21fa966ca5cd02748c0752352d18c48165e61cb55b4c29cccf924b5a95fcff19281900390910190a15050565b600160208181526000928352604092839020805481840180548651600296821615610100026000190190911695909504601f8101859004850286018501909652858552909491939290919083018282801561071e5780601f106106f35761010080835404028352916020019161071e565b820191906000526020600020905b81548152906001019060200180831161070157829003601f168201915b50505060028085018054604080516020601f60001961010060018716150201909416959095049283018590048502810185019091528181529596959450909250908301828280156107b05780601f10610785576101008083540402835291602001916107b0565b820191906000526020600020905b81548152906001019060200180831161079357829003601f168201915b5050506003909301549192505060ff1684565b60005481565b828054600181600116156101000203166002900490600052602060002090601f016020900481019282601f1061080a57805160ff1916838001178555610837565b82800160010185558215610837579182015b8281111561083757825182559160200191906001019061081c565b50610843929150610871565b5090565b60405180608001604052806000815260200160608152602001606081526020016000151581525090565b61088b91905b808211156108435760008155600101610877565b9056fea265627a7a72315820be36268055d91a56a2a4096c06765dc45fd4c46fc7d16a42d752916940d6015064736f6c63430005100032436f6d706c65746520424354204e6f7465732077656273697465206e6577206665617475726573",
  "source": "// Smart Contract for Todo-List \n\n// 1. Version of solidity Programming language that we want to use\npragma solidity ^0.5.0;\n\n// 2. Declare the smart contract \ncontract TodoList {\n  uint public taskCount = 0; //State \n\n  struct Task {\n    uint id;\n    string content;\n    string timestamp;\n    bool  completed;\n  }\n\n  // Storage \n  mapping(uint => Task) public tasks; \n\n  // Event \n  event TaskCreated(\n    uint id,\n    string content,\n    string timestamp,\n    bool completed\n  );\n\n  event TaskCompleted(\n    uint id,\n    bool completed\n  );\n\n  // Constructor fn to initilize the task\n  constructor() public {\n    createTask(\"Complete BCT Notes website new features\", '26/Aug/2020');\n    // createTask(\"Complete pending work\");\n  }\n\n  // Getter - fetch \n  // Modifiers - restrict \n  // Cost \n\n  function createTask(string memory _content, string memory _timestamp ) public  {\n    taskCount ++;\n    tasks[taskCount] = Task(taskCount, _content, _timestamp, false);\n\n    emit TaskCreated(taskCount, _content, _timestamp ,false);\n  }\n\n  function toggleCompleted(uint _id) public {\n    Task memory _task = tasks[_id];\n    _task.completed = !_task.completed;\n    tasks[_id] = _task;\n\n    emit TaskCompleted(_id, _task.completed);\n  }\n} ",
  "sourcePath": "/home/aakritsubedi/Desktop/todo-blockchain/contracts/TodoList.sol",
  "compiler": {
    "name": "solc",
    "version": "0.5.16+commit.9c3226ce.Emscripten.clang"
  },
  "schemaVersion": "3.2.3",
  "updatedAt": "2020-08-26T07:33:45.323Z",
  "networkType": "ethereum",
  "devdoc": {
    "methods": {}
  },
  "userdoc": {
    "methods": {}
  }
}